{
  "contractName": "SimpleVoting",
  "abi": [
    {
      "anonymous": false,
      "inputs": [
        {
          "indexed": true,
          "internalType": "address",
          "name": "voter",
          "type": "address"
        }
      ],
      "name": "Vote",
      "type": "event"
    },
    {
      "inputs": [
        {
          "internalType": "address",
          "name": "",
          "type": "address"
        }
      ],
      "name": "hasVoted",
      "outputs": [
        {
          "internalType": "bool",
          "name": "",
          "type": "bool"
        }
      ],
      "stateMutability": "view",
      "type": "function"
    },
    {
      "inputs": [],
      "name": "vote",
      "outputs": [],
      "stateMutability": "nonpayable",
      "type": "function"
    }
  ],
  "bytecode": "0x608060405234801561001057600080fd5b50610321806100206000396000f3fe608060405234801561001057600080fd5b50600436106100365760003560e01c806309eef43e1461003b578063632a9a521461006b575b600080fd5b610055600480360381019061005091906101d2565b610075565b604051610062919061024a565b60405180910390f35b610073610095565b005b60006020528060005260406000206000915054906101000a900460ff1681565b6000803373ffffffffffffffffffffffffffffffffffffffff1673ffffffffffffffffffffffffffffffffffffffff16815260200190815260200160002060009054906101000a900460ff1615610121576040517f08c379a000000000000000000000000000000000000000000000000000000000815260040161011890610265565b60405180910390fd5b60016000803373ffffffffffffffffffffffffffffffffffffffff1673ffffffffffffffffffffffffffffffffffffffff16815260200190815260200160002060006101000a81548160ff0219169083151502179055503373ffffffffffffffffffffffffffffffffffffffff167ff5b08346e1e6b0b55d07ce94e81fcb198d47fbbecfea3b9a476f454c86761ec460405160405180910390a2565b6000813590506101cc816102d4565b92915050565b6000602082840312156101e457600080fd5b60006101f2848285016101bd565b91505092915050565b610204816102a8565b82525050565b6000610217601783610285565b91507f596f75206861766520616c726561647920766f7465642e0000000000000000006000830152602082019050919050565b600060208201905061025f60008301846101fb565b92915050565b6000602082019050818103600083015261027e8161020a565b9050919050565b600082825260208201905092915050565b60006102a1826102b4565b9050919050565b60008115159050919050565b600073ffffffffffffffffffffffffffffffffffffffff82169050919050565b6102dd81610296565b81146102e857600080fd5b5056fea2646970667358221220ade686b410c84cf7bf794bd7731af543a99f7412d08567cdadd5be4c8a57786264736f6c63430008000033",
  "immutableReferences": {},
  "source": "pragma solidity ^0.8.0;\r\n\r\ncontract SimpleVoting {\r\n    mapping (address => bool) public hasVoted;\r\n\r\n    function vote() public {\r\n        require(!hasVoted[msg.sender], \"You have already voted.\");\r\n        hasVoted[msg.sender] = true;\r\n        emit Vote(msg.sender);\r\n    }\r\n\r\n    event Vote(address indexed voter);\r\n}\r\n",
  "sourcePath": "C:\\Personal\\Projects\\E-voting based on Blockchain\\servers\\blockchain\\contracts\\voting.sol",
  "compiler": {
    "name": "solc",
    "version": "0.8.0+commit.c7dfd78e.Emscripten.clang"
  },
  "schemaVersion": "3.4.13",
  "updatedAt": "2023-03-19T10:52:43.866Z",
  "devdoc": {
    "kind": "dev",
    "methods": {},
    "version": 1
  },
  "userdoc": {
    "kind": "user",
    "methods": {},
    "version": 1
  }
}